:020000040000FA
:0400000007EF00F016
:0A0008005F826EED0AF0C4EF0FF006
:1008000000506C61795F313A202564206D7300508F
:100810006C61795F323A202564206D7300434F4D3F
:070820004543454D21000096
:1008280091C0A7F092C0A8F093C0A9F094C0AAF014
:1008380095C0ABF096C0ACF097C0ADF098C0AEF0E4
:100848000001AEBF2AEF04F02DEF04F0010E2EEFE9
:1008580004F0000EB16FB151D8B435EF04F037EFA2
:1008680004F047EF04F0AE1FAD1FAC1FAB1FAA1F6B
:10087800A91FA81FA76D000EA823A923AA23AB238D
:10088800AC23AD23AE23D9BF54EF04F0D95106E110
:10089800D805D8B052EF04F054EF04F05AEF04F042
:1008A800000EA46F010EA36F5EEF04F0D8C0A3F092
:1008B800D9C0A4F0D6C0A5F0D7C0A6F0B151D8B41D
:1008C80068EF04F06AEF04F081EF04F0A507D8A000
:1008D800A607B151D8A473EF04F075EF04F07BEFCD
:1008E80004F0000EA26F2B0EA16F7FEF04F0000E34
:1008F800A26F2D0EA16FA1C0B1F0000EB06F1F0E38
:10090800AF6F000E01011F6F07EF05F0AF07D8A00A
:10091800B007000EAF25D96E010EB021DA6EA7C060
:100928006EF0A8C06FF0A9C070F0AAC071F0ABC09B
:1009380072F0ACC073F0ADC074F0AEC075F00A0EC2
:10094800766F000E776F000E786F000E796F000ECD
:100958007A6F000E7B6F000E7C6F000E7D6F09ECC6
:1009680009F06EC099F06FC09AF070C09BF071C02A
:100978009CF072C09DF073C09EF074C09FF075C06B
:10098800A0F099C080F09AC081F04CEC0FF0000103
:100998008051300FDF6EA307D8A0A407A507D8A001
:1009A800A607A7C06EF0A8C06FF0A9C070F0AAC0D3
:1009B80071F0ABC072F0ACC073F0ADC074F0AEC0F3
:1009C80075F00A0E766F000E776F000E786F000EC6
:1009D800796F000E7A6F000E7B6F000E7C6F000E31
:1009E8007D6F80EC07F06EC0A7F06FC0A8F070C0F4
:1009F800A9F071C0AAF072C0ABF073C0ACF074C0BB
:100A0800ADF075C0AEF00001B0BF13EF05F0B05106
:100A180008E1AF05D8A013EF05F015EF05F031EFA9
:100A280005F0A751A811A911AA11AB11AC11AD116C
:100A3800AE11D8A422EF05F024EF05F08AEF04F0F8
:100A4800A4BF31EF05F0A45106E1A305D8B02FEFFC
:100A580005F031EF05F08AEF04F0B151D8B437EF63
:100A680005F039EF05F044EF05F0AF07D8A0B0075F
:100A7800000EAF25D96E010EB021DA6EB1C0DFFFCE
:100A88008FC084F090C085F0000EAF25866F010EF0
:100A9800B021876FA5C088F0A6C089F017EC0EF0CA
:100AA800120024C03AF025C03BF026C03CF027C015
:100AB8003DF028C03EF029C03FF02AC040F02BC0CE
:100AC80041F041BE6AEF05F06DEF05F0010E6EEFE3
:100AD80005F0000E446E4450D8B475EF05F077EF7A
:100AE80005F087EF05F0411E401E3F1E3E1E3D1ECD
:100AF8003C1E3B1E3A6C000E3B223C223D223E220D
:100B08003F22402241220001D9BF95EF05F0D9517B
:100B180006E1D805D8B093EF05F095EF05F09BEF07
:100B280005F0000E376E010E366E9FEF05F0D8C047
:100B380036F0D9C037F0D6C038F0D7C039F04450B5
:100B4800D8B4A9EF05F0ABEF05F0C2EF05F0380611
:100B5800D8A039064450D8A4B4EF05F0B6EF05F094
:100B6800BCEF05F0000E356E2B0E346EC0EF05F0AD
:100B7800000E356E2D0E346E34C044F0000E436EF8
:100B88001F0E426E000E01011F6F47EF06F042066E
:100B9800D8A04306000E4224D96E010E4320DA6E17
:100BA8003AC001F03BC002F03CC003F03DC004F085
:100BB8003EC005F03FC006F040C007F041C008F055
:100BC8000A0E096E000E0A6E000E0B6E000E0C6EF9
:100BD800000E0D6E000E0E6E000E0F6E000E106EE3
:100BE800BCEC09F001C02CF002C02DF003C02EF0BF
:100BF80004C02FF005C030F006C031F007C032F055
:100C080008C033F02CC013F02DC014F08EEC0FF098
:100C18001350300FDF6E3606D8A037063806D8A036
:100C280039063AC001F03BC002F03CC003F03DC0B9
:100C380004F03EC005F03FC006F040C007F041C0D8
:100C480008F00A0E096E000E0A6E000E0B6E000EFA
:100C58000C6E000E0D6E000E0E6E000E0F6E000E66
:100C6800106E45EC08F001C03AF002C03BF003C03A
:100C78003CF004C03DF005C03EF006C03FF007C0A0
:100C880040F008C041F043BE52EF06F0435008E17F
:100C98004204D8A052EF06F054EF06F070EF06F0C9
:100CA8003A503B103C103D103E103F104010411090
:100CB800D8A461EF06F063EF06F0CBEF05F037BE7E
:100CC80070EF06F0375006E13604D8B06EEF06F044
:100CD80070EF06F0CBEF05F04450D8B476EF06F08D
:100CE80078EF06F083EF06F04206D8A04306000E20
:100CF8004224D96E010E4320DA6E44C0DFFF22C0C1
:100D080017F023C018F0000E4224196E010E43207C
:100D18001A6E38C01BF039C01CF056EC0EF01200E9
:100D2800F28EF28CF288000ECC6E000E956E9290C8
:100D380092929294938093829384000E836E000E15
:100D48000001D56F000ED46F000EE36F000EE26F46
:100D5800000EE16F000EE06F000EDF6F000EDE6F19
:100D6800CA92CA80FA0ECB6ECA9CCA9ACA98CA8618
:100D7800CA8425EF07F09EA2C4EF06F0C6EF06F07E
:100D8800DDEF06F09E92E051E111D8A4CEEF06F017
:100D9800D0EF06F0D2EF06F0DC4BDD2BDE51DF1191
:100DA800D8A4D9EF06F0DBEF06F0DDEF06F0DA4B5A
:100DB800DB2BE005E111D8A4E4EF06F0E6EF06F03E
:100DC80025EF07F0DE05DF11D8A4EDEF06F0EFEF11
:100DD80006F025EF07F0000EE36F000EE26FDA5120
:100DE800DC5DDD51800AD26FDB51800AD259D8B060
:100DF80000EF07F002EF07F005EF07F0808215EF2C
:100E080007F0DC51DA5DDB51800AD26FDD51800AD0
:100E1800D259D8B012EF07F014EF07F015EF07F02A
:100E28008084DA51DC1907E1DB51DD19D8A41FEF02
:100E380007F021EF07F023EF07F080828084D41FAA
:100E4800D51FE205E311D8B42CEF07F02EEF07F019
:100E5800BFEF06F073EF07F003EC0DF013EC10F0A2
:100E6800010E0001726F010E07EC0FF0010E000178
:100E7800CC6F080ECD6FDCC0CEF0DDC0CFF0D9EC62
:100E88000FF0030E0001D36F8A0ED26F550EE82EB5
:100E9800FED7D22FFCD7D32FFAD700D0010E0001EE
:100EA800726F020E07EC0FF00F0E0001CC6F080EE8
:100EB800CD6FDAC0CEF0DBC0CFF0D9EC0FF0030E67
:100EC8000001D36F8A0ED26F550EE82EFED7D22FAF
:100ED800FCD7D32FFAD700D00001D41FD51FD45187
:100EE800D511D8A47AEF07F07CEF07F030EF07F0C0
:100EF80025EF07F007EF00F0000E00017F6F7DBFC0
:100F08008AEF07F088EF07F09CEF07F07D1F7C1F42
:100F18007B1F7A1F791F781F771F766D000E772346
:100F2800782379237A237B237C237D23010E7F6F0B
:100F380075BFA3EF07F0A1EF07F0B5EF07F0751F36
:100F4800741F731F721F711F701F6F1F6E6D000E4D
:100F58006F23702371237223732374237523010E67
:100F68007F1B20EE80F0070EDE6AE806FDE2765170
:100F78007711781179117A117B117C117D11D8B410
:100F8800C8EF07F0CAEF07F01CEF08F0010E7E6FFC
:100F9800D8EF07F0D89076377737783779377A37B8
:100FA8007B377C377D377E2B7DAFDDEF07F0DFEFBA
:100FB80007F0CEEF07F0D890803781378237833734
:100FC800843785378637873776516E5D77516F5905
:100FD80078517059795171597A5172597B517359B5
:100FE8007C5174597D517559D8A0FDEF07F0FFEF7A
:100FF80007F010EF08F076516E5F77516F5B78510C
:10100800705B7951715B7A51725B7B51735B7C5178
:10101800745B7D51755B8081D8907D337C337B33E5
:101028007A3379337833773376337E2FDFEF07F0EF
:101038007F51D8B422EF08F024EF08F034EF08F01D
:10104800871F861F851F841F831F821F811F806D36
:10105800000E8123822383238423852386238723E9
:1010680080C06EF081C06FF082C070F083C071F0F4
:1010780084C072F085C073F086C074F087C075F0C4
:101088001200000E126E10BE4EEF08F04CEF08F082
:1010980060EF08F0101E0F1E0E1E0D1E0C1E0B1EFC
:1010A8000A1E096C000E0A220B220C220D220E22A7
:1010B8000F221022010E126E08BE67EF08F065EFCE
:1010C80008F079EF08F0081E071E061E051E041E0C
:1010D800031E021E016C000E0222032204220522B6
:1010E800062207220822010E121A20EE13F0070E1C
:1010F800DE6AE806FDE209500A100B100C100D100C
:101108000E100F101010D8B48CEF08F08EEF08F006
:10111800E0EF08F0010E116E9CEF08F0D890093648
:101128000A360B360C360D360E360F361036112AA7
:1011380010AEA1EF08F0A3EF08F092EF08F0D890F6
:1011480013361436153616361736183619361A3633
:101158000950015C0A5002580B5003580C500458AF
:101168000D5005580E5006580F5007581050085883
:10117800D8A0C1EF08F0C3EF08F0D4EF08F0095089
:10118800015E0A50025A0B50035A0C50045A0D5073
:10119800055A0E50065A0F50075A1050085A138015
:1011A800D89010320F320E320D320C320B320A3216
:1011B8000932112EA3EF08F01250D8B4E6EF08F068
:1011C800E8EF08F0F8EF08F01A1E191E181E171E8F
:1011D800161E151E141E136C000E1422152216223C
:1011E8001722182219221A2213C001F014C002F083
:1011F80015C003F016C004F017C005F018C006F0BB
:1012080019C007F01AC008F01200000E00017F6F25
:1012180075BF13EF09F011EF09F025EF09F0751FFD
:10122800741F731F721F711F701F6F1F6E6D000E6A
:101238006F23702371237223732374237523010E84
:101248007F6F7DBF2CEF09F02AEF09F03CEF09F022
:101258007D1F7C1F7B1F7A1F791F781F771F766D74
:10126800000E7723782379237A237B237C237D231D
:1012780076517711781179117A117B117C117D11D2
:10128800D8B449EF09F04BEF09F093EF09F0010EDC
:101298007E6F59EF09F0D8907637773778377937F6
:1012A8007A377B377C377D377E2B7DAF5EEF09F051
:1012B80060EF09F04FEF09F076516E5D77516F5985
:1012C80078517059795171597A5172597B517359C2
:1012D8007C5174597D517559D8A075EF09F077EF95
:1012E80009F087EF09F076516E5F77516F5B78519F
:1012F800705B7951715B7A51725B7B51735B7C5186
:10130800745B7D51755BD8907D337C337B337A3346
:1013180079337833773376337E2F60EF09F07F5156
:10132800D8B499EF09F09BEF09F0ABEF09F0751FFE
:10133800741F731F721F711F701F6F1F6E6D000E59
:101348006F237023712372237323742375236EC054
:101358006EF06FC06FF070C070F071C071F072C045
:1013680072F073C073F074C074F075C075F0120039
:10137800000E126E08BEC5EF09F0C3EF09F0D7EFF3
:1013880009F0081E071E061E051E041E031E021E67
:10139800016C000E022203220422052206220722E3
:1013A8000822010E126E10BEDEEF09F0DCEF09F024
:1013B800EEEF09F0101E0F1E0E1E0D1E0C1E0B1E4A
:1013C8000A1E096C000E0A220B220C220D220E2284
:1013D8000F22102209500A100B100C100D100E10BD
:1013E8000F101010D8B4FBEF09F0FDEF09F045EF2E
:1013F8000AF0010E116E0BEF0AF0D89009360A3682
:101408000B360C360D360E360F361036112A10AE46
:1014180010EF0AF012EF0AF001EF0AF00950015C30
:101428000A5002580B5003580C5004580D500558D8
:101438000E5006580F50075810500858D8A027EFDC
:101448000AF029EF0AF039EF0AF00950015E0A5054
:10145800025A0B50035A0C50045A0D50055A0E509C
:10146800065A0F50075A1050085AD89010320F32A7
:101478000E320D320C320B320A320932112E12EFB3
:101488000AF01250D8B44BEF0AF04DEF0AF05DEFB6
:101498000AF0081E071E061E051E041E031E021E55
:1014A800016C000E022203220422052206220722D2
:1014B800082201C001F002C002F003C003F004C01A
:1014C80004F005C005F006C006F007C007F008C024
:1014D80008F012000600E1CF66F0E2CF67F0D9CF3E
:1014E80068F0DACF69F0F6CF6AF0F7CF6BF0F8CF93
:1014F8006CF0F5CF6DF0F2A284EF0AF086EF0AF0F7
:10150800EFEF0AF00001E051E111D8A48EEF0AF0E4
:1015180090EF0AF0CAEF0AF0DE51DF11D8A497EF76
:101528000AF099EF0AF0CAEF0AF0000EE36F010E15
:10153800E26F8080D6EC0DF023EC10F0010E056E02
:10154800010E6DEC0FF01D0E0001606F080E616F4B
:10155800EDEC0FF0020E0001656F450E646FA90EE9
:10156800E82EFED7642FFCD7652FFAD700D023ECDE
:1015780010F0F086F088000E0001DD6F000EDC6FC1
:10158800000EDB6F000EDA6FECEF0AF0E005E111F8
:10159800D8A4D1EF0AF0D3EF0AF0ECEF0AF0DE0599
:1015A800DF11D8A4DAEF0AF0DCEF0AF0ECEF0AF06A
:1015B800000EE36F000EE26F000EE16F000EE06FA9
:1015C800000EDF6F000EDE6F8092809423EC10F027
:1015D800F2920BEF0BF0F0A0F4EF0AF0F6EF0AF03E
:1015E800FEEF0AF0000E0001E16F010EE06FF090CF
:1015F8000BEF0BF0F0A203EF0BF005EF0BF00BEF86
:101608000BF0000E0001DF6F010EDE6FF0926DC06F
:10161800F5FF6CC0F8FF6BC0F7FF6AC0F6FF69C042
:10162800DAFF68C0D9FF67C0E2FF66C0E1FF5F92DA
:101638001100B4C0D9FFB5C0DAFFDECFF6FFDDCFA9
:10164800F7FF0800F550250AD8A42DEF0BF02FEF6F
:101658000BF0AFEF0BF0B4C0D9FFB5C0DAFFDE2A4C
:10166800000EDD22000E0001D76F000ED66FD6C027
:10167800E4F0D869D969B4C0D9FFB5C0DAFFDECFC4
:10168800C2F0DDCFC3F0C2C0F6FFC3C0F7FF080049
:10169800F550640AD8B453EF0BF055EF0BF063EF35
:1016A8000BF0C2C0F6FFC3C0F7FF0800F550690A87
:1016B800D8A461EF0BF063EF0BF0A6EF0BF0B6C008
:1016C800D9FFB7C0DAFFDFCFB8F0020EDE26DFCFD2
:1016D800B9F0000EDD22B8C0D9FFB9C0DAFFDECFFD
:1016E800BAF0DDCFBBF0000EBBBFFF0EBC6FBD6F05
:1016F800BE6FBF6FC06FC16F010EC225B86F000EFD
:10170800C321B96FB4C0D9FFB5C0DAFFB8C0DEFFD6
:10171800B9C0DDFFB2C08FF0B3C090F0BAC091F08D
:10172800BBC092F0BCC093F0BDC094F0BEC095F0B1
:10173800BFC096F0C0C097F0C1C098F014EC04F098
:10174800C4EF0BF0B4C0D9FFB5C0DAFFDE2A000E33
:10175800DD22C4EF0BF0B4C0D9FFB5C0DAFFDECF8D
:10176800F6FFDDCFF7FF0800F5500001746F756BC9
:10177800B2C076F0B3C077F06CEC0CF0A6EF0BF0CB
:10178800120047C0D9FF48C0DAFFDECFF6FFDDCF31
:10179800F7FF0800F550250AD8A4D5EF0BF0D7EFCE
:1017A8000BF057EF0CF047C0D9FF48C0DAFFDE2A2C
:1017B800000EDD22000E0001D76F000ED66FD6C0D6
:1017C800E4F0D869D96947C0D9FF48C0DAFFDECF4D
:1017D80055F0DDCF56F055C0F6FF56C0F7FF0800AC
:1017E800F550640AD8B4FBEF0BF0FDEF0BF00BEFEC
:1017F8000CF055C0F6FF56C0F7FF0800F550690A0F
:10180800D8A409EF0CF00BEF0CF04EEF0CF049C028
:10181800D9FF4AC0DAFFDFCF4BF0020EDE26DFCF5A
:101828004CF0000EDD224BC0D9FF4CC0DAFFDECFF2
:101838004DF0DDCF4EF0000E4EBEFF0E4F6E506ED7
:10184800516E526E536E546E010E55244B6E000E3F
:1018580056204C6E47C0D9FF48C0DAFF4BC0DEFFA8
:101868004CC0DDFF45C022F046C023F04DC024F037
:101878004EC025F04FC026F050C027F051C028F0C8
:1018880052C029F053C02AF054C02BF055EC05F093
:101898006BEF0CF047C0D9FF48C0DAFFDE2A000E14
:1018A800DD226BEF0CF047C0D9FF48C0DAFFDECF6E
:1018B800F6FFDDCFF7FF0800F550076E086A45C050
:1018C80009F046C00AF0B8EC0CF04EEF0CF012002C
:1018D800000176517711D8B474EF0CF076EF0CF064
:1018E8007FEF0CF076517711D8A47DEF0CF07FEFE5
:1018F8000CF084EF0CF0745138EC10F0B7EF0CF0EA
:1019080020EE09F07651D9267751DA22DE50DE1022
:10191800D8B491EF0CF093EF0CF0AEEF0CF020EE92
:1019280009F07651D9267751DA2210EE03F0765174
:10193800E1267751E222DE50E65CE650800A7C6FB1
:10194800DE50800A7C59D8B0ACEF0CF0AEEF0CF04A
:10195800B7EF0CF020EE03F07651D9267751DA2252
:10196800DE2A000EDD22120009500A10D8B4BFEF9B
:101978000CF0C1EF0CF0CAEF0CF009500A10D8A413
:10198800C8EF0CF0CAEF0CF0CFEF0CF0075046ECA4
:1019980010F002EF0DF020EE09F00950D9260A5098
:1019A800DA22DE50DE10D8B4DCEF0CF0DEEF0CF0FB
:1019B800F9EF0CF020EE09F00950D9260A50DA2286
:1019C80010EE03F00950E1260A50E222DE50E65CF0
:1019D800E650800A0F6EDE50800A0F58D8B0F7EF35
:1019E8000CF0F9EF0CF002EF0DF020EE03F00950C7
:1019F800D9260A50DA22DE2A000EDD22120083924E
:101A08008398839A839C839E410E0001726FEE0E29
:101A1800E82EFED7722FFCD700F0030E4CEC0DF029
:101A2800060E0001726F300EE82EFED7722FFCD71B
:101A380000F0030E4CEC0DF0210EE82EFED700F05E
:101A4800030E4CEC0DF0020E4CEC0DF0010E0001F3
:101A5800706F000EAEEC0FF0030E0001726F970E60
:101A6800E82EFED7722FFCD700D0280E0001706F29
:101A7800000EAEEC0FF00C0E0001706F000EAEEC15
:101A88000FF0060E0001706F000EAEEC0FF01200A2
:101A980000016F6F83826FC06EF0010E00016E1738
:101AA8006E3B83506E19EF0B6E19836E6FC06EF02C
:101AB800D8906E33010E6E176E3B6E4783506E19C9
:101AC800DF0B6E19836E6FC06EF0D8906E33D890AE
:101AD8006E33010E6E176E3B6E476E4783506E195C
:101AE800BF0B6E19836E6FC06EF0D8906E33D890AE
:101AF8006E33D8906E33010E6E176E336E3383508B
:101B08006E197F0B6E19836E100EE82EFED700D06B
:101B18008392100EE82EFED700D01200026E838248
:101B280002C001F0010E0116013A83500118EF0BB3
:101B38000118836E02C001F0D8900132010E01161F
:101B4800013A014683500118DF0B0118836E02C069
:101B580001F0D8900132D8900132010E0116013AF5
:101B68000146014683500118BF0B0118836E02C05D
:101B780001F0D8900132D8900132D8900132010E8C
:101B8800011601320132835001187F0B0118836E50
:101B9800100EE82EFED700D08392100EE82EFED746
:101BA80000D0120083928398839A839C839E410E6F
:101BB800056EEE0EE82EFED7052EFCD700D0030EDC
:101BC80092EC0DF0060E056E300EE82EFED7052EAF
:101BD800FCD700D0030E92EC0DF0210EE82EFED7B4
:101BE80000F0030E92EC0DF0020E92EC0DF0010ED7
:101BF800036E000E01EC10F0030E056E980EE82E31
:101C0800FED7052EFCD7280E036E000E01EC10F04F
:101C18000C0E036E000E01EC10F0060E036E000EA3
:101C280001EC10F01200000189BF1DEF0EF01FEF4C
:101C38000EF025EF0EF088C08DF089C08EF029EFE8
:101C48000EF0000E8E6F000E8D6F000E8C6F000E62
:101C58008B6F3CEF0EF0000E756F200E746F84C012
:101C680076F085C077F06CEC0CF000018B4B8C2B78
:101C78008D518B5D8C51800A8A6F8E51800A8A59EA
:101C8800D8A049EF0EF04BEF0EF02FEF0EF086C004
:101C98007DF087C07EF084C07FF085C080F0E3ECE3
:101CA8000EF012001CBE5BEF0EF05DEF0EF063EF5E
:101CB8000EF01BC020F01CC021F067EF0EF0000EE4
:101CC800216E000E206E000E1F6E000E1E6E79EF44
:101CD8000EF0000E086E200E076E17C009F018C02F
:101CE8000AF0B8EC0CF01E4A1F2A20501E5C1F5048
:101CF800800A1D6E2150800A1D58D8A086EF0EF06C
:101D080088EF0EF06DEF0EF019C010F01AC011F048
:101D180017C012F018C013F02AEC0FF01200C6C05A
:101D2800CAF0C7C0CBF0A8EF0EF0C4C0B2F0C5C06F
:101D3800B3F0CA0E0001B46F000EB56FC8C0B6F09C
:101D4800C9C0B7F01DEC0BF0CAC0F6FFCBC0F7FF57
:101D58000800F5500009D8A4B4EF0EF0B6EF0EF065
:101D680099EF0EF0000E0001C56F000EC46F12004F
:101D780059C05DF05AC05EF0D0EF0EF057C045F084
:101D880058C046F05D0E476E000E486E5BC049F0C5
:101D98005CC04AF0C5EC0BF05DC0F6FF5EC0F7FF13
:101DA8000800F5500009D8A4DCEF0EF0DEEF0EF0C5
:101DB800C2EF0EF0000E586E000E576E1200000EA5
:101DC8000001836F000E826FF6EF0EF081C074F091
:101DD800756B7FC076F080C077F06CEC0CF000017A
:101DE800824B832B82517D25D96E83517E21DA6EF9
:101DF800DF50816F8151D8A404EF0FF006EF0FF088
:101E0800EAEF0EF012000001736F000E0001746F0C
:101E18007305D8A412EF0FF014EF0FF016EF0FF0C0
:101E2800800E746F020E7319D8A41DEF0FF01FEF08
:101E38000FF021EF0FF0C00E746F74517225746F9C
:101E480074C070F0000EAEEC0FF01200000E166EAB
:101E5800000E156E3BEF0FF014C007F0086A12C0B1
:101E680009F013C00AF0B8EC0CF0154A162A155000
:101E78001024D96E16501120DA6EDF50146E1450EB
:101E8800D8A449EF0FF04BEF0FF030EF0FF012002E
:101E9800000181BF5AEF0FF0815106E18005D8B0EB
:101EA80058EF0FF05AEF0FF068EF0FF080C082F094
:101EB80081C083F0821F831F824B832B82C080F0F6
:101EC80083C081F06CEF0FF080C080F081C081F09A
:101ED8001200066E000E076E0604D8A476EF0FF007
:101EE80078EF0FF07AEF0FF0800E076E020E0618EB
:101EF800D8A481EF0FF083EF0FF085EF0FF0C00E3D
:101F0800076E07500524076E07C003F0000E01ECAA
:101F180010F0120014BE9BEF0FF0145006E11304EA
:101F2800D8B099EF0FF09BEF0FF0A9EF0FF013C0A7
:101F380015F014C016F0151E161E154A162A15C0DF
:101F480013F016C014F0ADEF0FF013C013F014C067
:101F580014F012000001716F000171B102D083907A
:101F680001D0838000D000D000F0000170390F0B41
:101F78004CEC0DF0000170510F0B4CEC0DF0120001
:101F880001EE00F0200EEE6AE806FDE100EED6F064
:101F98000F0EEE6AE806FDE15F905F92000EF86EA4
:101FA800080EF76E000194EF06F0CE0E0001D06F18
:101FB800000ED16F000EC46F000EC56FCCC0C6F006
:101FC800CDC0C7F0D00EC86F000EC96F93EC0EF0ED
:101FD8001200620E0001626F000E636F000E576EF2
:101FE800000E586E60C059F061C05AF0620E5B6E08
:101FF800000E5C6EBCEC0EF01200046E04B002D051
:10200800839001D0838000D000D000F003380F0BFC
:1020180092EC0DF003500F0B92EC0DF01200010E34
:102028000001706F000EAEEC0FF0030E0001726F2E
:10203800970EE82EFED7722FFCD700D01200010EA3
:10204800036E000E01EC10F0030E056E980EE82EDC
:10205800FED7052EFCD712000001726F72C070F017
:10206800010EAEEC0FF012000001736F0001735106
:1020780030EC10F01200056E05C003F0010E01EC03
:0E20880010F01200066E06503FEC10F0120031
:020000040020DA
:08000000FFFFFFFFFFFFFFFF00
:020000040030CA
:0E00000000001F1EFF8181FF0FC00FE00F40A8
:00000001FF
